{
  "_format": "hh-sol-artifact-1",
  "contractName": "Enroll",
  "sourceName": "contracts/Enrollment.sol",
  "abi": [
    {
      "inputs": [],
      "stateMutability": "nonpayable",
      "type": "constructor"
    },
    {
      "anonymous": false,
      "inputs": [
        {
          "indexed": true,
          "internalType": "address",
          "name": "student",
          "type": "address"
        },
        {
          "indexed": false,
          "internalType": "string",
          "name": "className",
          "type": "string"
        }
      ],
      "name": "Enrolled",
      "type": "event"
    },
    {
      "inputs": [
        {
          "internalType": "string",
          "name": "_className",
          "type": "string"
        },
        {
          "internalType": "address",
          "name": "_teacher",
          "type": "address"
        },
        {
          "internalType": "uint256",
          "name": "enrollmentCost",
          "type": "uint256"
        }
      ],
      "name": "addClass",
      "outputs": [],
      "stateMutability": "nonpayable",
      "type": "function"
    },
    {
      "inputs": [
        {
          "internalType": "string",
          "name": "_studentName",
          "type": "string"
        },
        {
          "internalType": "address",
          "name": "_studentAddress",
          "type": "address"
        },
        {
          "internalType": "string",
          "name": "_className",
          "type": "string"
        }
      ],
      "name": "addStudentToClass",
      "outputs": [],
      "stateMutability": "payable",
      "type": "function"
    },
    {
      "inputs": [],
      "name": "administrator",
      "outputs": [
        {
          "internalType": "address",
          "name": "",
          "type": "address"
        }
      ],
      "stateMutability": "view",
      "type": "function"
    },
    {
      "inputs": [
        {
          "internalType": "string",
          "name": "",
          "type": "string"
        },
        {
          "internalType": "uint256",
          "name": "",
          "type": "uint256"
        }
      ],
      "name": "classStudents",
      "outputs": [
        {
          "internalType": "string",
          "name": "name",
          "type": "string"
        },
        {
          "internalType": "address",
          "name": "memberAddress",
          "type": "address"
        }
      ],
      "stateMutability": "view",
      "type": "function"
    },
    {
      "inputs": [
        {
          "internalType": "uint256",
          "name": "",
          "type": "uint256"
        }
      ],
      "name": "classes",
      "outputs": [
        {
          "internalType": "string",
          "name": "className",
          "type": "string"
        },
        {
          "internalType": "address",
          "name": "teacher",
          "type": "address"
        },
        {
          "internalType": "uint256",
          "name": "enrollmentCost",
          "type": "uint256"
        }
      ],
      "stateMutability": "view",
      "type": "function"
    },
    {
      "inputs": [],
      "name": "getAdministratorBalance",
      "outputs": [
        {
          "internalType": "uint256",
          "name": "",
          "type": "uint256"
        }
      ],
      "stateMutability": "view",
      "type": "function"
    },
    {
      "inputs": [],
      "name": "getAllClasses",
      "outputs": [
        {
          "components": [
            {
              "internalType": "string",
              "name": "className",
              "type": "string"
            },
            {
              "internalType": "address",
              "name": "teacher",
              "type": "address"
            },
            {
              "internalType": "uint256",
              "name": "enrollmentCost",
              "type": "uint256"
            }
          ],
          "internalType": "struct Enroll.Class[]",
          "name": "",
          "type": "tuple[]"
        }
      ],
      "stateMutability": "view",
      "type": "function"
    },
    {
      "inputs": [
        {
          "internalType": "string",
          "name": "_className",
          "type": "string"
        }
      ],
      "name": "getClassStudents",
      "outputs": [
        {
          "components": [
            {
              "internalType": "string",
              "name": "name",
              "type": "string"
            },
            {
              "internalType": "address",
              "name": "memberAddress",
              "type": "address"
            }
          ],
          "internalType": "struct Enroll.Member[]",
          "name": "",
          "type": "tuple[]"
        }
      ],
      "stateMutability": "view",
      "type": "function"
    },
    {
      "inputs": [
        {
          "internalType": "address",
          "name": "_studentAddress",
          "type": "address"
        }
      ],
      "name": "getStudentEnrolls",
      "outputs": [
        {
          "components": [
            {
              "internalType": "string",
              "name": "className",
              "type": "string"
            },
            {
              "internalType": "address",
              "name": "teacher",
              "type": "address"
            },
            {
              "internalType": "uint256",
              "name": "enrollmentCost",
              "type": "uint256"
            }
          ],
          "internalType": "struct Enroll.Class[]",
          "name": "",
          "type": "tuple[]"
        }
      ],
      "stateMutability": "view",
      "type": "function"
    },
    {
      "inputs": [
        {
          "internalType": "string",
          "name": "",
          "type": "string"
        }
      ],
      "name": "instituteClasses",
      "outputs": [
        {
          "internalType": "string",
          "name": "className",
          "type": "string"
        },
        {
          "internalType": "address",
          "name": "teacher",
          "type": "address"
        },
        {
          "internalType": "uint256",
          "name": "enrollmentCost",
          "type": "uint256"
        }
      ],
      "stateMutability": "view",
      "type": "function"
    },
    {
      "inputs": [
        {
          "internalType": "address",
          "name": "",
          "type": "address"
        },
        {
          "internalType": "uint256",
          "name": "",
          "type": "uint256"
        }
      ],
      "name": "studentClasses",
      "outputs": [
        {
          "internalType": "string",
          "name": "className",
          "type": "string"
        },
        {
          "internalType": "address",
          "name": "teacher",
          "type": "address"
        },
        {
          "internalType": "uint256",
          "name": "enrollmentCost",
          "type": "uint256"
        }
      ],
      "stateMutability": "view",
      "type": "function"
    }
  ],
  "bytecode": "0x608060405234801561001057600080fd5b50336000806101000a81548173ffffffffffffffffffffffffffffffffffffffff021916908373ffffffffffffffffffffffffffffffffffffffff160217905550611d06806100606000396000f3fe60806040526004361061009c5760003560e01c8063817dbe9f11610064578063817dbe9f146101c3578063b702743b14610202578063bf2b59f11461021e578063decba2211461025d578063ed6a575114610288578063f53d0a8e146102b15761009c565b8063316565e1146100a15780633aa517c2146100de5780634e2a41591461011c578063697499081461015b5780636bda75dd14610198575b600080fd5b3480156100ad57600080fd5b506100c860048036038101906100c39190611364565b6102dc565b6040516100d591906118e9565b60405180910390f35b3480156100ea57600080fd5b50610105600480360381019061010091906114f0565b61046c565b60405161011392919061194f565b60405180910390f35b34801561012857600080fd5b50610143600480360381019061013e91906113c9565b61056b565b6040516101529392919061197f565b60405180910390f35b34801561016757600080fd5b50610182600480360381019061017d91906113c9565b610653565b60405161018f919061190b565b60405180910390f35b3480156101a457600080fd5b506101ad6107b8565b6040516101ba91906118e9565b60405180910390f35b3480156101cf57600080fd5b506101ea60048036038101906101e59190611544565b610909565b6040516101f99392919061197f565b60405180910390f35b61021c6004803603810190610217919061140a565b6109eb565b005b34801561022a57600080fd5b506102456004803603810190610240919061138d565b610d00565b6040516102549392919061197f565b60405180910390f35b34801561026957600080fd5b50610272610def565b60405161027f91906119fd565b60405180910390f35b34801561029457600080fd5b506102af60048036038101906102aa9190611489565b610e41565b005b3480156102bd57600080fd5b506102c6611125565b6040516102d391906118ce565b60405180910390f35b6060600260008373ffffffffffffffffffffffffffffffffffffffff1673ffffffffffffffffffffffffffffffffffffffff168152602001908152602001600020805480602002602001604051908101604052809291908181526020016000905b82821015610461578382906000526020600020906003020160405180606001604052908160008201805461037090611bd2565b80601f016020809104026020016040519081016040528092919081815260200182805461039c90611bd2565b80156103e95780601f106103be576101008083540402835291602001916103e9565b820191906000526020600020905b8154815290600101906020018083116103cc57829003601f168201915b505050505081526020016001820160009054906101000a900473ffffffffffffffffffffffffffffffffffffffff1673ffffffffffffffffffffffffffffffffffffffff1673ffffffffffffffffffffffffffffffffffffffff1681526020016002820154815250508152602001906001019061033d565b505050509050919050565b600482805160208101820180518482526020830160208501208183528095505050505050818154811061049e57600080fd5b9060005260206000209060020201600091509150508060000180546104c290611bd2565b80601f01602080910402602001604051908101604052809291908181526020018280546104ee90611bd2565b801561053b5780601f106105105761010080835404028352916020019161053b565b820191906000526020600020905b81548152906001019060200180831161051e57829003601f168201915b5050505050908060010160009054906101000a900473ffffffffffffffffffffffffffffffffffffffff16905082565b6003818051602081018201805184825260208301602085012081835280955050505050506000915090508060000180546105a490611bd2565b80601f01602080910402602001604051908101604052809291908181526020018280546105d090611bd2565b801561061d5780601f106105f25761010080835404028352916020019161061d565b820191906000526020600020905b81548152906001019060200180831161060057829003601f168201915b5050505050908060010160009054906101000a900473ffffffffffffffffffffffffffffffffffffffff16908060020154905083565b606060048260405161066591906118b7565b9081526020016040518091039020805480602002602001604051908101604052809291908181526020016000905b828210156107ad57838290600052602060002090600202016040518060400160405290816000820180546106c690611bd2565b80601f01602080910402602001604051908101604052809291908181526020018280546106f290611bd2565b801561073f5780601f106107145761010080835404028352916020019161073f565b820191906000526020600020905b81548152906001019060200180831161072257829003601f168201915b505050505081526020016001820160009054906101000a900473ffffffffffffffffffffffffffffffffffffffff1673ffffffffffffffffffffffffffffffffffffffff1673ffffffffffffffffffffffffffffffffffffffff168152505081526020019060010190610693565b505050509050919050565b60606001805480602002602001604051908101604052809291908181526020016000905b82821015610900578382906000526020600020906003020160405180606001604052908160008201805461080f90611bd2565b80601f016020809104026020016040519081016040528092919081815260200182805461083b90611bd2565b80156108885780601f1061085d57610100808354040283529160200191610888565b820191906000526020600020905b81548152906001019060200180831161086b57829003601f168201915b505050505081526020016001820160009054906101000a900473ffffffffffffffffffffffffffffffffffffffff1673ffffffffffffffffffffffffffffffffffffffff1673ffffffffffffffffffffffffffffffffffffffff168152602001600282015481525050815260200190600101906107dc565b50505050905090565b6001818154811061091957600080fd5b906000526020600020906003020160009150905080600001805461093c90611bd2565b80601f016020809104026020016040519081016040528092919081815260200182805461096890611bd2565b80156109b55780601f1061098a576101008083540402835291602001916109b5565b820191906000526020600020905b81548152906001019060200180831161099857829003601f168201915b5050505050908060010160009054906101000a900473ffffffffffffffffffffffffffffffffffffffff16908060020154905083565b6003816040516109fb91906118b7565b9081526020016040518091039020600201543414610a4e576040517f08c379a0000000000000000000000000000000000000000000000000000000008152600401610a45906119dd565b60405180910390fd5b60008060009054906101000a900473ffffffffffffffffffffffffffffffffffffffff1690508273ffffffffffffffffffffffffffffffffffffffff167faff7cc483474af47a4f10a113769fab99ab00b1db774daa5d77669eb7d70860483604051610aba919061192d565b60405180910390a28073ffffffffffffffffffffffffffffffffffffffff166108fc349081150290604051600060405180830381858888f19350505050158015610b08573d6000803e3d6000fd5b50600260008473ffffffffffffffffffffffffffffffffffffffff1673ffffffffffffffffffffffffffffffffffffffff168152602001908152602001600020600383604051610b5891906118b7565b908152602001604051809103902090806001815401808255809150506001900390600052602060002090600302016000909190919091506000820181600001908054610ba390611bd2565b610bae9291906111a2565b506001820160009054906101000a900473ffffffffffffffffffffffffffffffffffffffff168160010160006101000a81548173ffffffffffffffffffffffffffffffffffffffff021916908373ffffffffffffffffffffffffffffffffffffffff160217905550600282015481600201555050600482604051610c3291906118b7565b908152602001604051809103902060405180604001604052808681526020018573ffffffffffffffffffffffffffffffffffffffff1681525090806001815401808255809150506001900390600052602060002090600202016000909190919091506000820151816000019080519060200190610cb092919061122f565b5060208201518160010160006101000a81548173ffffffffffffffffffffffffffffffffffffffff021916908373ffffffffffffffffffffffffffffffffffffffff160217905550505050505050565b60026020528160005260406000208181548110610d1c57600080fd5b906000526020600020906003020160009150915050806000018054610d4090611bd2565b80601f0160208091040260200160405190810160405280929190818152602001828054610d6c90611bd2565b8015610db95780601f10610d8e57610100808354040283529160200191610db9565b820191906000526020600020905b815481529060010190602001808311610d9c57829003601f168201915b5050505050908060010160009054906101000a900473ffffffffffffffffffffffffffffffffffffffff16908060020154905083565b6000670de0b6b3a764000060008054906101000a900473ffffffffffffffffffffffffffffffffffffffff1673ffffffffffffffffffffffffffffffffffffffff1631610e3c9190611b23565b905090565b60008054906101000a900473ffffffffffffffffffffffffffffffffffffffff1673ffffffffffffffffffffffffffffffffffffffff163373ffffffffffffffffffffffffffffffffffffffff1614610ecf576040517f08c379a0000000000000000000000000000000000000000000000000000000008152600401610ec6906119bd565b60405180910390fd5b6000600384604051610ee191906118b7565b90815260200160405180910390206000018054610efd90611bd2565b80601f0160208091040260200160405190810160405280929190818152602001828054610f2990611bd2565b8015610f765780601f10610f4b57610100808354040283529160200191610f76565b820191906000526020600020905b815481529060010190602001808311610f5957829003601f168201915b50505050509050610f878482611149565b15610f925750611120565b60405180606001604052808581526020018473ffffffffffffffffffffffffffffffffffffffff16815260200183815250600385604051610fd391906118b7565b90815260200160405180910390206000820151816000019080519060200190610ffd92919061122f565b5060208201518160010160006101000a81548173ffffffffffffffffffffffffffffffffffffffff021916908373ffffffffffffffffffffffffffffffffffffffff16021790555060408201518160020155905050600160405180606001604052808681526020018573ffffffffffffffffffffffffffffffffffffffff16815260200184815250908060018154018082558091505060019003906000526020600020906003020160009091909190915060008201518160000190805190602001906110ca92919061122f565b5060208201518160010160006101000a81548173ffffffffffffffffffffffffffffffffffffffff021916908373ffffffffffffffffffffffffffffffffffffffff160217905550604082015181600201555050505b505050565b60008054906101000a900473ffffffffffffffffffffffffffffffffffffffff1681565b60008160405160200161115c91906118b7565b604051602081830303815290604052805190602001208360405160200161118391906118b7565b6040516020818303038152906040528051906020012014905092915050565b8280546111ae90611bd2565b90600052602060002090601f0160209004810192826111d0576000855561121e565b82601f106111e1578054855561121e565b8280016001018555821561121e57600052602060002091601f016020900482015b8281111561121d578254825591600101919060010190611202565b5b50905061122b91906112b5565b5090565b82805461123b90611bd2565b90600052602060002090601f01602090048101928261125d57600085556112a4565b82601f1061127657805160ff19168380011785556112a4565b828001600101855582156112a4579182015b828111156112a3578251825591602001919060010190611288565b5b5090506112b191906112b5565b5090565b5b808211156112ce5760008160009055506001016112b6565b5090565b60006112e56112e084611a49565b611a18565b9050828152602081018484840111156112fd57600080fd5b611308848285611b90565b509392505050565b60008135905061131f81611ca2565b92915050565b600082601f83011261133657600080fd5b81356113468482602086016112d2565b91505092915050565b60008135905061135e81611cb9565b92915050565b60006020828403121561137657600080fd5b600061138484828501611310565b91505092915050565b600080604083850312156113a057600080fd5b60006113ae85828601611310565b92505060206113bf8582860161134f565b9150509250929050565b6000602082840312156113db57600080fd5b600082013567ffffffffffffffff8111156113f557600080fd5b61140184828501611325565b91505092915050565b60008060006060848603121561141f57600080fd5b600084013567ffffffffffffffff81111561143957600080fd5b61144586828701611325565b935050602061145686828701611310565b925050604084013567ffffffffffffffff81111561147357600080fd5b61147f86828701611325565b9150509250925092565b60008060006060848603121561149e57600080fd5b600084013567ffffffffffffffff8111156114b857600080fd5b6114c486828701611325565b93505060206114d586828701611310565b92505060406114e68682870161134f565b9150509250925092565b6000806040838503121561150357600080fd5b600083013567ffffffffffffffff81111561151d57600080fd5b61152985828601611325565b925050602061153a8582860161134f565b9150509250929050565b60006020828403121561155657600080fd5b60006115648482850161134f565b91505092915050565b6000611579838361180c565b905092915050565b600061158d838361185c565b905092915050565b61159e81611b54565b82525050565b6115ad81611b54565b82525050565b60006115be82611a99565b6115c88185611ad4565b9350836020820285016115da85611a79565b8060005b8581101561161657848403895281516115f7858261156d565b945061160283611aba565b925060208a019950506001810190506115de565b50829750879550505050505092915050565b600061163382611aa4565b61163d8185611ae5565b93508360208202850161164f85611a89565b8060005b8581101561168b578484038952815161166c8582611581565b945061167783611ac7565b925060208a01995050600181019050611653565b50829750879550505050505092915050565b60006116a882611aaf565b6116b28185611af6565b93506116c2818560208601611b9f565b6116cb81611c91565b840191505092915050565b60006116e182611aaf565b6116eb8185611b07565b93506116fb818560208601611b9f565b61170481611c91565b840191505092915050565b600061171a82611aaf565b6117248185611b18565b9350611734818560208601611b9f565b80840191505092915050565b600061174d602583611b07565b91507f4f6e6c792061646d696e6973747261746f722063616e2063726561746520636c60008301527f61737365730000000000000000000000000000000000000000000000000000006020830152604082019050919050565b60006117b3602183611b07565b91507f4861766520746f207061792066756c6c20707269636520746f20656e726f6c6c60008301527f20000000000000000000000000000000000000000000000000000000000000006020830152604082019050919050565b60006060830160008301518482036000860152611829828261169d565b915050602083015161183e6020860182611595565b5060408301516118516040860182611899565b508091505092915050565b60006040830160008301518482036000860152611879828261169d565b915050602083015161188e6020860182611595565b508091505092915050565b6118a281611b86565b82525050565b6118b181611b86565b82525050565b60006118c3828461170f565b915081905092915050565b60006020820190506118e360008301846115a4565b92915050565b6000602082019050818103600083015261190381846115b3565b905092915050565b600060208201905081810360008301526119258184611628565b905092915050565b6000602082019050818103600083015261194781846116d6565b905092915050565b6000604082019050818103600083015261196981856116d6565b905061197860208301846115a4565b9392505050565b6000606082019050818103600083015261199981866116d6565b90506119a860208301856115a4565b6119b560408301846118a8565b949350505050565b600060208201905081810360008301526119d681611740565b9050919050565b600060208201905081810360008301526119f6816117a6565b9050919050565b6000602082019050611a1260008301846118a8565b92915050565b6000604051905081810181811067ffffffffffffffff82111715611a3f57611a3e611c62565b5b8060405250919050565b600067ffffffffffffffff821115611a6457611a63611c62565b5b601f19601f8301169050602081019050919050565b6000819050602082019050919050565b6000819050602082019050919050565b600081519050919050565b600081519050919050565b600081519050919050565b6000602082019050919050565b6000602082019050919050565b600082825260208201905092915050565b600082825260208201905092915050565b600082825260208201905092915050565b600082825260208201905092915050565b600081905092915050565b6000611b2e82611b86565b9150611b3983611b86565b925082611b4957611b48611c04565b5b828204905092915050565b6000611b5f82611b66565b9050919050565b600073ffffffffffffffffffffffffffffffffffffffff82169050919050565b6000819050919050565b82818337600083830152505050565b60005b83811015611bbd578082015181840152602081019050611ba2565b83811115611bcc576000848401525b50505050565b60006002820490506001821680611bea57607f821691505b60208210811415611bfe57611bfd611c33565b5b50919050565b7f4e487b7100000000000000000000000000000000000000000000000000000000600052601260045260246000fd5b7f4e487b7100000000000000000000000000000000000000000000000000000000600052602260045260246000fd5b7f4e487b7100000000000000000000000000000000000000000000000000000000600052604160045260246000fd5b6000601f19601f8301169050919050565b611cab81611b54565b8114611cb657600080fd5b50565b611cc281611b86565b8114611ccd57600080fd5b5056fea264697066735822122088af14eb20094adb64acf2ab84e8084cf36119a5e045df70f017463c4506012b64736f6c63430008000033",
  "linkReferences": {},
  "deployedLinkReferences": {}
}